S01E000030365F54494D45524C45445F4578616D706C655F31362E73726563FA
S113000045C0000053C0000051C000004FC00000B4
S11300104DC000004BC0000049C0000047C00000B4
S113002045C0000043C0000041C000003FC00000C4
S11300303DC000003BC0000039C0000037C00000D4
S113004035C0000033C0000031C000002FC00000E4
S11300502DC000002BC0000029C0000027C00000F4
S113006025C0000023C0000021C000001FC0000004
S11300701DC0000036C0000019C0000017C00000F9
S113008015C0000013C0000011C0000011241FBEE1
S1130090CFEFD0E1DEBFCDBF21E0A0E0B1E001C0F1
S11300A01D92A130B207E1F702D03CC0A9CF8FE086
S11300B084BB10928B0085E080938A0080EC97ECDF
S11300C0909389008093880084E080937D00ECE71E
S11300D0F0E080818460808378948091000185BB06
S11300E0FCCF1F920F920FB60F9211248F939F9300
S11300F0F89480EC97EC9093890080938800809129
S113010000018F5F8093000180910001803110F025
S11301101092000178949F918F910F900FBE0F90D1
S10B01201F901895F894FFCF1D
S9030000FC
