:1000000045C0000058C0000056C0000054C00000A9
:1000100052C0000050C000004EC000004CC00000A4
:100020004AC0000048C0000046C0000044C00000B4
:1000300042C0000040C000003EC000003CC00000C4
:100040003AC0000038C0000036C0000034C00000D4
:1000500032C0000030C000002EC000002CC00000E4
:100060002AC0000028C0000026C0000024C00000F4
:1000700022C0000020C000001EC000001CC0000004
:100080001AC0000018C0000016C0000011241FBED6
:10009000CFEFD0E1DEBFCDBF11E0A0E0B1E0ECE1F9
:1000A000F3E000E00BBF02C007900D92A633B1074A
:1000B000D9F70CD031C1A4CF5D9BFECF8CB95D9A2E
:1000C00008955F9BFECF8CB15F9A0895CF93DF9325
:1000D000CDB7DEB7A5970FB6F894DEBF0FBECDBF84
:1000E0008CE1E0E1F1E0DE01119601900D928A953C
:1000F000E1F789E0ECE2F1E0DE015D9601900D921E
:100100008A95E1F78EEF82B980E887BB1BB888E15A
:100110008AB986E0809395001092900083E089B9B7
:100120008FB58FBD8EB589618EBD10927A001DBCD2
:100130001CBC10E0E1E0F0E0EC0FFD1FE10FF11D51
:100140008081882319F01F5FB7DFF4CF10E0EDE165
:10015000F0E0EC0FFD1FE10FF11D8081882319F005
:100160001F5FAADFF4CFC12C80E8D82E80E7E82EED
:10017000F12C0AE010E0A5DF9FDFA3DF813341F41B
:100180008FB58A608FBD20910001309101014DC073
:1001900098DF823341F48FB58A608FBD20910201D0
:1001A0003091030142C08DDF833341F48FB58A6003
:1001B0008FBD209104013091050137C082DF843367
:1001C00041F48FB58A608FBD2091060130910701FF
:1001D0002CC077DF853341F48FB58A608FBD2091C5
:1001E00008013091090121C06CDF863341F48FB5DD
:1001F0008A608FBD20910A0130910B0116C061DF2A
:10020000873341F48FB58A608FBD20910C01309106
:100210000D010BC056DF883309F0ADCF8FB58A6072
:100220008FBD20910E0130910F0140E050E0C701D9
:10023000B60134D037BD26BD86B597B5B8011AD002
:1002400070937900609378002FEF8FE39BE021504B
:1002500080409040E1F700C000008FB58FBD17BD12
:1002600006BD86B597B5B80105D070937900609347
:10027000780081CFAA1BBB1B51E107C0AA1FBB1F7F
:10028000A617B70710F0A61BB70B881F991F5A9522
:10029000A9F780959095BC01CD010895052E97FB97
:1002A00016F400940FD057FD05D014D007FC02D0EF
:1002B00046F408C050954095309521953F4F4F4FDB
:1002C0005F4F089590958095709561957F4F8F4F02
:1002D0009F4F0895A1E21A2EAA1BBB1BFD010DC062
:1002E000AA1FBB1FEE1FFF1FA217B307E407F507E6
:1002F00020F0A21BB30BE40BF50B661F771F881FC2
:10030000991F1A9469F760957095809590959B0157
:0C031000AC01BD01CF010895F894FFCFAF
:10031C000B024B029302BA020F037003DB031604A9
:10032C000D0A506C6561736520506C6179205069C1
:10033C00616E6F2E28317E38290D0A004543484FD7
:06034C00203E3E200000EF
:00000001FF
