S015000041746D656C3132385F546573742E7372656382
S113000045C00000EDC100005EC000005CC00000FF
S11300105AC0000058C0000056C0000054C0000080
S113002052C0000050C000004EC000004CC0000090
S11300304AC0000048C0000046C0000044C00000A0
S113004042C0000040C000003EC000003CC00000B0
S11300503AC0000038C0000036C0000034C00000C0
S113006032C0000030C000002EC000002CC00000D0
S11300702AC0000028C0000026C0000024C00000E0
S113008022C0000020C000001EC0000011241FBEBA
S1130090CFEFD0E1DEBFCDBF11E0A0E0B1E0E2EFF1
S11300A0F4E000E00BBF02C007900D92A03CB10742
S11300B0D9F721E0A0ECB1E001C01D92A13CB20748
S11300C0E1F71ED014C29CCF5D9BFECF8CB95D9A24
S11300D008955F9BFECF8CB15F9A08950F931F9391
S11300E0CF938C01C0E0F801EC0FF11D80818823CF
S11300F019F0CF5FE9DFF7CFCF911F910F910895EA
S1130100CF93DF93CDB7DEB7C058D1090FB6F894BB
S1130110DEBF0FBECDBF87E7E7E3F1E0DE01119656
S113012001900D928A95E1F789E0EEEAF1E0DE01B3
S1130130A858BF4F01900D928A95E1F78FEF84BBC9
S11301408EEF82B91BB888E18AB986E08093950066
S11301501092900083E089B990E897BB1FBC99E1A5
S11301609EBD10927A001DBC1CBC92E0909361006D
S11301709093620017B896E896B990E29ABB90EF14
S113018091BBDD9880936A0081E089BF88BF789431
S113019010E0E1E0F0E0EC0FFD1FE10FF11D8081C4
S11301A0882319F01F5F90DFF4CF10E0E8E7F0E058
S11301B0EC0FFD1FE10FF11D8081882319F01F5FF3
S11301C083DFF4CF90E1C92E20E2D22E38EEA32EA5
S11301D033E0B32E0AE010E044E6842E912C412C47
S11301E050E8552E50E7652E712C73DFF82E6CDF26
S11301F080ED8F0D883090F580E191E06FDF8FB551
S11302008A608FBDEF2DF0E0EE0FFF1FE056FF4F29
S11302102081318140E050E0C301B2012AD137BDD1
S113022026BD86B597B5B80110D170937900609357
S113023078002FEF3FE34BE0215030404040E1F79E
S113024000C000001FBC17BD06BD86B597B5B80138
S1130250FCD07093790060937800C7CF5CE4F5120A
S113026032C080E0813009F4C0CF98E021E03091C1
S1130270C001313071F025BB220FEFEFFFE33BE00B
S1130280E150F0403040E1F700C00000915079F7B0
S113029001C081E097E020E43091C001313029F4BD
S11302A01092C00115BA81E0DDCF25BB26954FEF32
S11302B05FE3EBE041505040E040E1F700C0000054
S11302C0915051F7CFCFF3E4FF1233C08091C001B6
S11302D0813009F465C0369A349BFECFE4B0F5B0A2
S11302E08AE191E0FBDEC701B501AFD0CB01B801D3
S11302F0ACD0805DE9DEC701B401A7D0CB01B80161
S1130300A4D0805DE1DEC701B8019FD0F82ECB01F7
S1130310B8019BD0805DD8DE80E38F0DD5DE2FEF52
S11303203FE34BE0215030404040E1F700C0000083
S1130330CDCF52E7F51228C084E291E0CFDE30E35E
S113034020E990EC80E64091C001413049F132BB94
S1130350EFEFF7E43197F1F700C0000022BBEFEFB5
S1130360F7E43197F1F700C0000092BBEFEFF7E438
S11303703197F1F700C0000082BBEFEFF7E431974B
S1130380F1F700C00000DFCFFCE6FF122ECF8EE2B3
S113039091E0A4DE90E480E82091C001213019F4BA
S11303A01092C00122CFC2BAEFEFF7E43197F1F710
S11303B000C00000D2BAEFEFF7E43197F1F700C0C4
S11303C0000092BBEFEFF7E43197F1F700C00000B3
S11303D082BBEFEFF7E43197F1F700C00000DCCF08
S11303E01F920F920FB60F9211240BB60F922F93F8
S11303F03F934F935F936F937F938F939F93AF93A9
S1130400BF93EF93FF93F8948091C001811107C0CB
S113041081E08093C00187EB91E060DE02C010921E
S1130420C0017894FF91EF91BF91AF919F918F910B
S11304307F916F915F914F913F912F910F900BBEE0
S11304400F900FBE0F901F901895AA1BBB1B51E174
S113045007C0AA1FBB1FA617B70710F0A61BB70B30
S1130460881F991F5A95A9F780959095BC01CD01D5
S11304700895052E97FB16F400940FD057FD05D070
S113048014D007FC02D046F408C05095409530952E
S113049021953F4F4F4F5F4F0895909580957095EC
S11304A061957F4F8F4F9F4F0895A1E21A2EAA1B8B
S11304B0BB1BFD010DC0AA1FBB1FEE1FFF1FA21710
S11304C0B307E407F50720F0A21BB30BE40BF50B0D
S11304D0661F771F881F991F1A9469F76095709596
S11304E0809590959B01AC01BD01CF010895F894CE
S10504F0FFCF38
S11304F20B024B029302BA020F037003DB031604CE
S1130502207069616E6F200A0D000A0D2043445366
S1130512203A20000A0D20726967687420000A0DCF
S1130522206C65667420000D0A202B2B2B204D4570
S11305324E55202B2B2B200D0A204C203A204C45C3
S113054244200D0A2043203A20434453200D0A201C
S113055230207E2037203A205049414E4F200D0A48
S1130562205B53746570204D6F746F725D2072202E
S11305723A2072696768742C206C203A206C656694
S113058274200D0A207075736820627574746F6E1E
S11305922030203A2073746F70200D0A20004543E6
S11305A2484F203E3E20000A0D2053746F702000F5
S9030000FC
